:020000040000FA
:100000008C6A8C8E8C888C8C956A958A8C90640E08
:100010003CEC00F08C80640E3CEC00F033EC00F023
:10002000A4EC01F0FFEC03F047EC04F054EC04F016
:10003000BEEC02F01AEF00F021EC00F02AEC00F028
:1000400012008C9E800E37EC00F0025037EC00F06E
:100050008C8E12008C9E000E37EC00F0035037ECB3
:1000600000F08C8E1200689C320E676E12006A6E71
:10007000A1AAFED7A19A12001C6EFA0E43EC00F062
:100080001C2EFBD712001A6E1A3A0F0E1A141B6E92
:10009000F00E1A164DEC00F01200000E1A061B5A54
:0400A000FDE212006B
:0200A40000005A
:0A00A600046E04AC33D0C00E0D6EE2
:1000B000070E0414640D0A0EF324096E0B6E000E75
:1000C000F420056E076E500E0B26000E0722044228
:1000D00004420440070B320D140EF3240A6E0C6E1A
:1000E000000EF420066E086E0A0E0C26000E082282
:1000F000D5EC00F01200410E026E000E036E1CECF7
:1001000000F01200410E026E010E036E1CEC00F0B6
:100110001200070ECCD7900E166E010E176E000E51
:10012000BAEC00F0020E3CEC00F01606175AF8E2AA
:10013000187018A005D082EC00F0A3EC00F01200BB
:100140007BEC00F0FAD7000E096E000E056E000E73
:100150000A6E000E066E1F0E0B6E030E076E900EDB
:100160000C6E010E086E0D6AD5EC00F0050E3CEC2D
:1001700000F01200260E026E16C003F018B0CDEC8F
:1001800000F01CEC00F0270E026E17C003F018B050
:10019000D1EC00F01CEC00F01200900E1624036E5F
:1001A0001200010E1720036E1200910E026E09C09C
:1001B00003F01CEC00F0920E026E05C003F01CEC84
:1001C00000F0930E026E0AC003F01CEC00F0940ED7
:1001D000026E06C003F01CEC00F0950E026E0BC020
:1001E00003F01CEC00F0960E026E07C003F01CEC4E
:1001F00000F0970E026E0CC003F01CEC00F0980E9D
:10020000026E08C003F01CEC00F0A10E026E050E99
:10021000036E1CEC00F0A20E026E000E036E1CECCE
:1002200000F0A30E026E050E036E1CEC00F0A40E8F
:10023000026E000E036E1CEC00F0630E026E070EE1
:100240000D14036E1CEC00F0640E026E0D420D42A4
:100250000D42070E0D14036E1CEC00F0650E026ECD
:100260000D420D42030E0D14036E1CEC00F0A00EA7
:10027000026EE00E036E1CEC00F0010E3CEC00F090
:100280001200910E026E000E036E12C003F01CEC01
:1002900000F0920E026E000E036E0EC003F0036EAD
:1002A0001CEC00F0930E026E000E036E13C003F000
:1002B000036E1CEC00F0940E026E000E036E0FC075
:1002C00003F0036E1CEC00F0950E026E1F0E036E21
:1002D00014C003F0036E1CEC00F0960E026E030EC9
:1002E000036E10C003F0036E1CEC00F0970E026E5C
:1002F000DF0E036E15C003F0036E1CEC00F0980EC9
:10030000026E010E036E11C003F0036E1CEC00F0D0
:10031000630E026E070E036E1CEC00F0640E026E9C
:10032000070E036E1CEC00F0650E026E030E036EEA
:100330001CEC00F0900E026E800E036E1CEC00F0C0
:10034000010E3CEC00F012004AEC02F0100E026EBE
:100350000C0E036E1CEC00F0040E026E810E036E98
:100360001CEC00F0010E3CEC00F0140E026E630E6B
:10037000036E1CEC00F0150E026E000E036E1CECFA
:1003800000F0160E026E030E036E1CEC00F0170E4A
:10039000026E030E036E1CEC00F0180E026E0B0EC4
:1003A000036E1CEC00F0190E026EDF0E036E1CECE7
:1003B00000F01A0E026E010E036E1CEC00F01B0E14
:1003C000026E1F0E036E1CEC00F01C0E026E000E7F
:1003D000036E1CEC00F01D0E026E160E036E1CEC7C
:1003E00000F01E0E026E000E036E1CEC00F01F0EDD
:1003F000026E010E036E1CEC00F0300E026E000E59
:10040000036E1CEC00F0310E026E000E036E1CEC4D
:1004100000F0340E026E1F0E036E1CEC00F0350E61
:10042000026E030E036E1CEC00F0320E026E000E24
:10043000036E1CEC00F0330E026E000E360E026EE0
:10044000DF0E036E1CEC00F0370E026E010E036E21
:100450001CEC00F08E0E026EC00E036E1CEC00F061
:10046000FA0E3CEC00F0FA0E3CEC00F05EEC02F010
:1004700065EC02F06CEC02F073EC02F07AEC02F046
:10048000B1EC02F0189082EC00F0A3EC00F07BECF1
:1004900000F01200880E026E000E0B0F036E1CECB3
:1004A00000F0010E3CEC00F0890E026E020E036EAD
:1004B0001CEC00F0010E3CEC00F01200010E026E8C
:1004C000800E036E1CEC00F01200C70E026E010ECF
:1004D000036E1CEC00F012008A0E026E8A0E036E90
:1004E0001CEC00F012008B0E026EFF0E036E1CEC73
:1004F00000F01200380E026E000E036E1CEC00F0CD
:10050000390E026E000E036E1CEC00F03A0E026E05
:10051000000E036E1CEC00F03B0E026E000E036E2C
:100520001CEC00F03C0E026E1F0E036E1CEC00F083
:100530003D0E026E030E036E1CEC00F03E0E026ECA
:10054000900E036E1CEC00F03F0E026E010E036E67
:100550001CEC00F0520E026EC00E036E1CEC00F09C
:100560001200200E026E800E036E1CEC00F0400E96
:0C057000026E800E036E1CEC00F0120006
:04057C00000E53EC2E
:1005800000F0090E53EC00F0120E53EC00F01B0EBD
:1005900053EC00F0240E53EC00F02D0E53EC00F061
:1005A000360E53EC00F03F0E53EC00F08BEC00F0F5
:1005B000470E53EC00F04E0E53EC00F0550E53EC8A
:1005C00000F05C0E53EC00F0630E53EC00F06A0E8A
:1005D00053EC00F0710E53EC00F0780E53EC00F089
:1005E0008BEC00F0000E53EC00F0090E53EC00F021
:1005F000120E53EC00F01B0E53EC00F0240E53ECE3
:1006000000F02D0E53EC00F0360E53EC00F03F0ED0
:1006100053EC00F08BEC00F0470E53EC00F04E0E64
:1006200053EC00F0550E53EC00F05C0E53EC00F070
:10063000630E53EC00F06A0E53EC00F0710E53ECB5
:1006400000F0780E53EC00F08BEC00F0000E53EC51
:1006500000F0090E53EC00F0120E53EC00F01B0EEC
:1006600053EC00F0240E53EC00F02D0E53EC00F090
:10067000360E53EC00F03F0E53EC00F08BEC00F024
:10068000470E53EC00F04E0E53EC00F0550E53ECB9
:1006900000F05C0E53EC00F0630E53EC00F06A0EB9
:1006A00053EC00F0710E53EC00F0780E53EC00F0B8
:1006B0008BEC00F0000E53EC00F0090E53EC00F050
:1006C000120E53EC00F01B0E53EC00F0240E53EC12
:1006D00000F02D0E53EC00F0360E53EC00F03F0E00
:1006E00053EC00F08BEC00F0470E53EC00F04E0E94
:1006F00053EC00F0550E53EC00F05C0E53EC00F0A0
:10070000630E53EC00F06A0E53EC00F0710E53ECE4
:1007100000F0780E53EC00F08BEC00F0000E53EC80
:1007200000F0090E53EC00F0120E53EC00F01B0E1B
:1007300053EC00F0240E53EC00F02D0E53EC00F0BF
:10074000360E53EC00F03F0E53EC00F08BEC00F053
:10075000470E53EC00F04E0E53EC00F0550E53ECE8
:1007600000F05C0E53EC00F0630E53EC00F06A0EE8
:1007700053EC00F0710E53EC00F0780E53EC00F0E7
:100780008BEC00F0000E53EC00F0090E53EC00F07F
:10079000120E53EC00F01B0E53EC00F0240E53EC41
:1007A00000F02D0E53EC00F0360E53EC00F03F0E2F
:1007B00053EC00F08BEC00F0470E53EC00F04E0EC3
:1007C00053EC00F0550E53EC00F05C0E53EC00F0CF
:1007D000630E53EC00F06A0E53EC00F0710E53EC14
:0E07E00000F0780E53EC00F08BEC00F01200ED
:0207EE000F0DED
:1007F00007050E0C06040B0903010A0802000F018D
:10080000538D7F9C7F8E12008D6A0F0E966E640E44
:100810003CEC00F00E0E846203D0010E006E12D08C
:100820000D0E846203D0020E006E0CD00B0E84629B
:1008300003D0030E006E06D0070E846226D0040E8D
:10084000006E00D08D6AF00E966E640E3CEC00F0E7
:10085000E00E846203D0000E002611D0D00E846218
:1008600003D0040E00260BD0B00E846203D0080E15
:10087000002605D0700E846208D00C0E00260900F8
:0E088000002EFDD7F5CF01F01200000E120081
:02088E00AB8E2F
:10089000AC98AC94AC8A6596670EAF6E948C1200DF
:1008A0009EA8FED7AD6E1200230E50EC04F0300E61
:1008B00050EC04F0300E50EC04F00A0E50EC04F052
:0208C000120024
:020000040030CA
:0100000015EA
:0100010013EB
:010002007F7E
:010003007F7D
:01000400F902
:010005008B6F
:010006009168
:01000800FFF8
:01000900C036
:01000A00FFF6
:01000B00E014
:01000C00FFF4
:01000D0040B2
:00000001FF
