:020000040000FA
:100000007F9C7F8E2BEC02F0C9EC00F0EAEC02F052
:0C00100020EC03F036EC03F00CEF00F0E5
:02001C000000E2
:02001E00900E42
:10002000236E010E246E43EC00F0BAEC02F00A0ECF
:10003000D4EC02F02306000E245AF5E2257025A028
:1000400008D0FCEC01F0FF0ED4EC02F02CEC00F038
:100050001200F6EC01F0FAD7000E1E6E000E1A6EBA
:10006000000E1F6E000E1B6E1F0E206E030E1C6E08
:10007000900E216E010E1D6E226A5CEC00F00A0EDD
:10008000D4EC02F01200260E186E23C019F025B031
:1000900056EC00F003EC02F0270E186E24C019F0A5
:1000A00025B059EC00F003EC02F01200900E192676
:1000B0001200010E19221200910E186E1EC019F0C6
:1000C00003EC02F0920E186E1AC019F003EC02F065
:1000D000930E186E1FC019F003EC02F0940E186E08
:1000E0001BC019F003EC02F0950E186E20C019F039
:1000F00003EC02F0960E186E1CC019F003EC02F02F
:10010000970E186E21C019F003EC02F0980E186ECD
:100110001DC019F003EC02F0A10E186E050E196E49
:1001200003EC02F0A20E186E000E196E03EC02F042
:10013000A30E186E050E196E03EC02F0A40E186ED5
:10014000000E196E03EC02F0630E186E070E2214F7
:10015000196E03EC02F0640E186E22422242224213
:10016000070E2214196E03EC02F0650E186E22427F
:1001700022422242030E2214196E03EC02F0A00E5A
:10018000186EE00E196E03EC02F0010ED4EC02F0D2
:1001900012008C6A8C8E8C888C8C956A958A8C90D7
:1001A000640ED4EC02F08C80640ED4EC02F01AECF5
:1001B00002F082EC01F0100E186E000E196E03ECC6
:1001C00002F0040E186E810E196E03EC02F0010E9F
:1001D000D4EC02F0140E186E630E196E03EC02F0EC
:1001E000150E186E000E196E03EC02F0160E186E46
:1001F000030E196E03EC02F0170E186E030E196E43
:1002000003EC02F0180E186E0B0E196E03EC02F0E0
:10021000190E186EDF0E196E03EC02F01A0E186E2E
:10022000010E196E03EC02F01B0E186E1F0E196EF4
:1002300003EC02F01C0E186E000E196E03EC02F0B7
:100240001D0E186E160E196E03EC02F01E0E186EBF
:10025000000E196E03EC02F01F0E186E010E196EDF
:1002600003EC02F0300E186E000E196E03EC02F073
:10027000310E186E000E196E03EC02F0340E186E7B
:100280001F0E196E03EC02F0350E186E030E196E78
:1002900003EC02F0320E186E000E196E03EC02F041
:1002A000330E186E000E196E03EC02F0360E186E47
:1002B000DF0E196E03EC02F0370E186E010E196E88
:1002C00003EC02F08E0E186EC00E196E03EC02F0F5
:1002D000FA0ED4EC02F0FA0ED4EC02F096EC01F037
:1002E0009DEC01F0A4EC01F0ABEC01F0B2EC01F0FC
:1002F000E9EC01F02590FCEC01F02CEC00F0F6ECC0
:1003000001F01200880E186E000E0B0F196E03EC30
:1003100002F0010ED4EC02F0890E186E020E196E76
:1003200003EC02F0010ED4EC02F01200010E186E84
:10033000800E196E03EC02F01200C70E186E010E4B
:10034000196E03EC02F012008A0E186E8A0E196EF6
:1003500003EC02F012008B0E186EFF0E196E03EC08
:1003600002F01200380E186E000E196E03EC02F047
:10037000390E186E000E196E03EC02F03A0E186E6C
:10038000000E196E03EC02F03B0E186E000E196E93
:1003900003EC02F03C0E186E1F0E196E03EC02F017
:1003A0003D0E186E030E196E03EC02F03E0E186E31
:1003B000900E196E03EC02F03F0E186E010E196ECE
:1003C00003EC02F0520E186EC00E196E03EC02F030
:1003D0001200200E186E800E196E03EC02F0400E13
:1003E000186E800E196E03EC02F01200400E186EAB
:1003F000196A03EC02F01200400E186E010E196E1D
:1004000003EC02F0120008EC02F011EC02F0120012
:100410008C9E800E1EEC02F018501EEC02F08C8EAA
:1004200012008C9E000E1EEC02F019501EEC02F021
:100430008C8E1200689C320E676E12006A6EA1AA42
:06044000FED7A19A120094
:0A04460088848381181412114844C1
:10045000424128242221000E0A0F0A0F146E00EEDA
:1004600000F0EE6AE962FDD7156A166A176A120093
:10047000196E00EE00F0EFB638D0EF86F00E1914CA
:10048000EF12E89EE838640D0A0EF3241E6E206E0B
:10049000000EF4201A6E1C6E500E2026000E1C2238
:1004A000EFAE29D0C00E226E070E1914320D140EB5
:1004B000F3241F6E216EF36E000EF4201B6E1D6E72
:1004C000F46E0A0E2126000E1D222350F35E2450E6
:1004D000F456900EF35E010EF456010EF3CFEBFFCF
:1004E000F450EF125CEC00F01200E92AE92A1450F3
:1004F000E9601200C0D7070ED6D700EE00F0EFA6D5
:100500002DD0030EEF14E86629D0010EEBCF18F0C2
:10051000140E186023D0000EF86E040EF76E460E0F
:10052000F66EEF380F0BF626000EF722F8220800C1
:10053000F550186E2614186211D0010EEBCF18F08A
:100540000A0E186011D0050E186010D011D01526B3
:10055000000E16221722D0EC02F01200E92AE92A36
:100560001450E9601200CBD7190EF1D7320EEFD735
:10057000640EEDD700EE00F0EFA609D0010EEB06F9
:10058000030EEF14186E000E185807E3EF12E92A55
:10059000E92A1450E9601200EFD7D0EC02F0F7D747
:1005A000EF6A010EEB6A1200186EFA0EDBEC02F035
:1005B000182EFBD712001A6E1A3A0F0E1A14196E63
:1005C000F00E1A16E5EC02F01200000E1A06195A87
:0405D000FDE2120036
:0C05D4000F01538D120026688D6A0F0E77
:1005E000966E640ED4EC02F00E0E846226900D0E10
:1005F000846226920B0E84622694070E84622696ED
:100600008D6AF00E966E640ED4EC02F0E00E8462F9
:100610002698D00E8462269AB00E8462269C700EB4
:060620008462269E120018
:0A062600230E32EC03F0300E32EC2C
:1006300003F0300E32EC03F00A0E32EC03F012003D
:10064000AB8EAC98AC94AC8A6596670EAF6E948C0A
:100650008B9A949AFA0ED4EC02F08B8AFA0ED4ECB0
:0C06600002F012009EA8FED7AD6E120042
:04066C00000E38EC58
:1006700002F0010E38EC02F0020E38EC02F0030E2C
:1006800038EC02F00FEC00F0C00E38EC02F0C10EB6
:1006900038EC02F0C30E38EC02F0C20E38EC02F077
:0606A0000FEC00F0120057
:020000040030CA
:0100000015EA
:0100010013EB
:010002007F7E
:010003007F7D
:01000400F902
:010005008B6F
:010006009168
:01000800FFF8
:01000900C036
:01000A00FFF6
:01000B00E014
:01000C00FFF4
:01000D0040B2
:00000001FF
