:020000040000FA
:100000007F9C7F8E2EEC02F0CCEC00F0EDEC02F049
:0C00100023EC03F039EC03F00CEF00F0DF
:02001C000000E2
:02001E00900E42
:10002000236E010E246E46EC00F0BDEC02F00A0EC9
:10003000D7EC02F02306000E245AF5E2257025A025
:100040000BD0FFEC01F0FF0ED7EC02F02FEC00F02C
:10005000FF0ED7EC02F01200F9EC01F0F7D7000E1A
:100060001E6E000E1A6E000E1F6E000E1B6E1F0E0F
:10007000206E030E1C6E900E216E010E1D6E226A04
:100080005FEC00F00A0ED7EC02F01200260E186E9C
:1000900023C019F025B059EC00F006EC02F0270E51
:1000A000186E24C019F025B05CEC00F006EC02F0EC
:1000B0001200900E19261200010E19221200910E44
:1000C000186E1EC019F006EC02F0920E186E1AC0DF
:1000D00019F006EC02F0930E186E1FC019F006EC32
:1000E00002F0940E186E1BC019F006EC02F0950E8B
:1000F000186E20C019F006EC02F0960E186E1CC0A7
:1001000019F006EC02F0970E186E21C019F006ECFB
:1001100002F0980E186E1DC019F006EC02F0A10E48
:10012000186E050E196E06EC02F0A20E186E000E87
:10013000196E06EC02F0A30E186E050E196E06EC91
:1001400002F0A40E186E000E196E06EC02F0630E9B
:10015000186E070E2214196E06EC02F0640E186E6B
:10016000224222422242070E2214196E06EC02F0AD
:10017000650E186E224222422242030E2214196E8C
:1001800006EC02F0A00E186EE00E196E06EC02F0FE
:10019000010ED7EC02F012008C6A8C8E8C888C8C4D
:1001A000956A958A8C90640ED7EC02F08C80640E70
:1001B000D7EC02F01DEC02F085EC01F0100E186E89
:1001C000000E196E06EC02F0040E186E810E196E08
:1001D00006EC02F0010ED7EC02F0140E186E630E5E
:1001E000196E06EC02F0150E186E000E196E06EC74
:1001F00002F0160E186E030E196E06EC02F0170EC2
:10020000186E030E196E06EC02F0180E186E0B0E27
:10021000196E06EC02F0190E186EDF0E196E06EC60
:1002200002F01A0E186E010E196E06EC02F01B0E8B
:10023000186E1F0E196E06EC02F01C0E186E000EE2
:10024000196E06EC02F01D0E186E160E196E06ECF5
:1002500002F01E0E186E000E196E06EC02F01F0E54
:10026000186E010E196E06EC02F0300E186E000EBC
:10027000196E06EC02F0310E186E000E196E06ECC7
:1002800002F0340E186E1F0E196E06EC02F0350ED9
:10029000186E030E196E06EC02F0320E186E000E88
:1002A000196E06EC02F0330E186E000E196E06EC95
:1002B00002F0360E186EDF0E196E06EC02F0370EE5
:1002C000186E010E196E06EC02F08E0E186EC00E3E
:1002D000196E06EC02F0FA0ED7EC02F0FA0ED7EC2B
:1002E00002F099EC01F0A0EC01F0A7EC01F0AEEC0B
:1002F00001F0B5EC01F0ECEC01F02590FFEC01F021
:100300002FEC00F0F9EC01F01200880E186E000ED0
:100310000B0F196E06EC02F0010ED7EC02F0890EFD
:10032000186E020E196E06EC02F0010ED7EC02F008
:100330001200010E186E800E196E06EC02F012000B
:10034000C70E186E010E196E06EC02F012008A0E2E
:10035000186E8A0E196E06EC02F012008B0E186EE3
:10036000FF0E196E06EC02F01200380E186E000E29
:10037000196E06EC02F0390E186E000E196E06ECBE
:1003800002F03A0E186E000E196E06EC02F03B0EEB
:10039000186E000E196E06EC02F03C0E186E1F0E61
:1003A000196E06EC02F03D0E186E030E196E06EC87
:1003B00002F03E0E186E900E196E06EC02F03F0E23
:1003C000186E010E196E06EC02F0520E186EC00E79
:1003D000196E06EC02F01200200E186E800E196ED7
:1003E00006EC02F0400E186E800E196E06EC02F05C
:1003F0001200400E186E196A06EC02F01200400E50
:10040000186E010E196E06EC02F012000BEC02F0F1
:1004100014EC02F012008C9E800E21EC02F01850B9
:1004200021EC02F08C8E12008C9E000E21EC02F06A
:10043000195021EC02F08C8E1200689C320E676E0F
:0C04400012006A6EA1AAFED7A19A120059
:04044C00888483819C
:10045000181412114844424128242221000E0A0F88
:100460000A0F146E00EE00F0EE6AE962FDD7156A1D
:10047000166A176A1200196E00EE00F0EFB638D057
:10048000EF86F00E1914EF12E89EE838640D0A0E9C
:10049000F3241E6E206E000EF4201A6E1C6E500E99
:1004A0002026000E1C22EFAE29D0C00E226E070EB1
:1004B0001914320D140EF3241F6E216EF36E000E0C
:1004C000F4201B6E1D6EF46E0A0E2126000E1D22F6
:1004D0002350F35E2450F456900EF35E010EF45652
:1004E000010EF3CFEBFFF450EF125FEC00F01200BF
:1004F000E92AE92A1450E9601200C0D7070ED6D7BE
:1005000000EE00F0EFA62DD0030EEF14E86629D020
:10051000010EEBCF18F0140E186023D0000EF86E09
:10052000040EF76E4C0EF66EEF380F0BF626000E2B
:10053000F722F8220800F550186E2614186211D020
:10054000010EEBCF18F00A0E186011D0050E1860DE
:1005500010D011D01526000E16221722D3EC02F06F
:100560001200E92AE92A1450E9601200CBD7190ECB
:10057000F1D7320EEFD7640EEDD700EE00F0EFA604
:1005800009D0010EEB06030EEF14186E000E18587A
:1005900007E3EF12E92AE92A1450E9601200EFD7C5
:1005A000D3EC02F0F7D7EF6A010EEB6A1200186E77
:1005B000FA0EDEEC02F0182EFBD712001A6E1A3A71
:1005C0000F0E1A14196EF00E1A16E8EC02F0120053
:0A05D000000E1A06195AFDE212008F
:0605DA000F01538D120019
:1005E00026688D6A0F0E966E640ED7EC02F00E0E22
:1005F000846226900D0E846226920B0E84622694ED
:10060000070E846226968D6AF00E966E640ED7EC05
:1006100002F0E00E84622698D00E8462269AB00E14
:0C0620008462269C700E8462269E1200EC
:04062C00230E35EC78
:1006300003F0300E35EC03F0300E35EC03F00A0E0B
:1006400035EC03F01200AB8EAC98AC94AC8A659696
:10065000670EAF6E948C8B9A949AFA0ED7EC02F0D8
:100660008B8AFA0ED7EC02F012009EA8FED7AD6E70
:02067000120076
:0E067200000E3BEC02F0010E3BEC02F0020E1B
:100680003BEC02F0030E3BEC02F00FEC00F0C00E6E
:100690003BEC02F0C10E3BEC02F0C30E3BEC02F06F
:0C06A000C20E3BEC02F00FEC00F0120068
:020000040030CA
:0100000015EA
:0100010013EB
:010002007F7E
:010003007F7D
:01000400F902
:010005008B6F
:010006009168
:01000800FFF8
:01000900C036
:01000A00FFF6
:01000B00E014
:01000C00FFF4
:01000D0040B2
:00000001FF
