:020000040000FA
:100000007F9C7F8E59EC03F08BEC00F0A0EC04F0A9
:0C0010008AEC04F04CEC04F00CEF00F063
:02001C000000E2
:02001E00900E42
:100020005A6E010E5B6EAFEC03F059EC00F020EC61
:1000300004F05DBC0FD0050E36EC04F05A06000E3D
:100040005B5AF1E25D7E5DAE31D0A5EC02F074EC5E
:1000500000F012005C4E30EC03F0EDD79EEC02F0A5
:1000600045EC00F0630E466E070E476EACEC02F0F6
:10007000640E466E070E476EACEC02F0650E466EDF
:10008000030E476EACEC02F012001E0E5C6EEF38F1
:10009000070B596A3BEC03F05D8C1200300F516E78
:1000A0009CEC01F05150B7EC01F012009EEC02F014
:1000B000CED7260E466E5AC047F05DBE6CEC00F0FF
:1000C000ACEC02F0270E466E5BC047F05DBE70ECF4
:1000D00000F0ACEC02F01200900E5A24476E1200B1
:1000E000010E5B20476E1200000E4C6E000E486E33
:1000F000000E4D6E000E496E1F0E4E6E030E4A6EC0
:10010000900E4F6E010E4B6E506ABDEC01F0050E65
:1001100036EC04F012008C6A8C8E8C888C8C956A7C
:10012000958A8C90640E36EC04F08C80640E36EC6C
:1001300004F0C3EC02F02AEC02F0100E466E000E42
:10014000476EACEC02F0040E466E810E476EACECCE
:1001500002F0010E36EC04F0140E466E630E476E8C
:10016000ACEC02F0150E466E000E476EACEC02F0E1
:10017000160E466E030E476EACEC02F0170E466E7E
:10018000030E476EACEC02F0180E466E0B0E476E77
:10019000ACEC02F0190E466EDF0E476EACEC02F0CE
:1001A0001A0E466E010E476EACEC02F01B0E466E48
:1001B0001F0E476EACEC02F01C0E466E000E476E32
:1001C000ACEC02F01D0E466E160E476EACEC02F063
:1001D0001E0E466E000E476EACEC02F01F0E466E11
:1001E000010E476EACEC02F0300E466E000E476E0C
:1001F000ACEC02F0310E466E000E476EACEC02F035
:10020000340E466E1F0E476EACEC02F0350E466E95
:10021000030E476EACEC02F0320E466E000E476ED7
:10022000ACEC02F0330E466E000E476EACEC02F002
:10023000360E466EDF0E476EACEC02F0370E466EA1
:10024000010E476EACEC02F08E0E466EC00E476E8D
:10025000ACEC02F0FA0E36EC04F0FA0E36EC04F0D8
:100260003EEC02F045EC02F04CEC02F053EC02F0F4
:100270005AEC02F091EC02F05D9E9EEC02F044EC30
:1002800001F030EC03F01200210E466E000E476EB6
:10029000ACEC02F0600E466E000E476EACEC02F065
:1002A000610E466E000E476EACEC02F0620E466EBA
:1002B000000E476EACEC02F0630E466E070E476E02
:1002C000ACEC02F0640E466E070E476EACEC02F02A
:1002D000650E466E030E476EACEC02F0220E466EC3
:1002E000050E476EACEC02F0526A9CEC01F0530E26
:1002F000B7EC01F0630EB7EC01F06F0EB7EC01F054
:10030000720EB7EC01F0650EB7EC01F03A0EB7ECE7
:1003100001F0300EB7EC01F0300EB7EC01F0300E0A
:10032000B7EC01F0300EB7EC01F0300EB7EC01F095
:10033000300EB7EC01F012002A0E466E570E522412
:10034000476EACEC02F02B0E466E476A020E472257
:10035000ACEC02F02C0E466EBF0E476EACEC02F019
:100360002D0E466E010E476EACEC02F01200476E89
:10037000020E466EACEC02F01200910E466E4CC0BE
:1003800047F0ACEC02F0920E466E48C047F0ACEC81
:1003900002F0930E466E4DC047F0ACEC02F0940EA6
:1003A000466E49C047F0ACEC02F0950E466E4EC06A
:1003B00047F0ACEC02F0960E466E4AC047F0ACEC4B
:1003C00002F0970E466E4FC047F0ACEC02F0980E6C
:1003D000466E4BC047F0ACEC02F0A10E466E050E27
:1003E000476EACEC02F0A20E466E000E476EACEC0F
:1003F00002F0A30E466E050E476EACEC02F0A40EA2
:10040000466E000E476EACEC02F0630E466E070EB1
:100410005014476EACEC02F0640E466E50425042EF
:100420005042070E5014476EACEC02F0650E466E5B
:10043000504250425042030E5014476EACEC02F052
:10044000A00E466EE00E476EACEC02F0010E36ECEC
:1004500004F01200880E466E000E0B0F476EACECD7
:1004600002F0010E36EC04F0890E466E020E476E65
:10047000ACEC02F0010E36EC04F01200010E466EF8
:10048000800E476EACEC02F01200C70E466E010EF5
:10049000476EACEC02F012008A0E466E8A0E476E72
:1004A000ACEC02F012008B0E466EFF0E476EACEC09
:1004B00002F01200380E466E000E476EACEC02F0F1
:1004C000390E466E000E476EACEC02F03A0E466EE8
:1004D000000E476EACEC02F03B0E466E000E476E0F
:1004E000ACEC02F03C0E466E1F0E476EACEC02F018
:1004F0003D0E466E030E476EACEC02F03E0E466EAD
:10050000900E476EACEC02F03F0E466E010E476E49
:10051000ACEC02F0520E466EC00E476EACEC02F030
:100520001200200E466E800E476EACEC02F0400EBC
:10053000466E800E476EACEC02F01200410E466E25
:10054000000E476EACEC02F01200410E466E010E3A
:10055000476EACEC02F01200B1EC02F0BAEC02F023
:1005600012008C9E800EC7EC02F04650C7EC02F0E1
:100570008C8E12008C9E000EC7EC02F04750C7EC28
:1005800002F08C8E1200689C320E676E12006A6E4A
:10059000A1AAFED7A19A1200910E466E53C047F051
:1005A000ACEC02F0920E466E54C047F0ACEC02F098
:1005B000930E466EAF0E476EACEC02F0940E466E94
:1005C000010E476EACEC02F0950E466E55C047F03A
:1005D000ACEC02F0960E466E56C047F0ACEC02F062
:1005E000970E466EAF0E476EACEC02F0980E466E5C
:1005F000010E476EACEC02F0A90E466E57C047F0F4
:10060000ACEC02F0AA0E466E58C047F0ACEC02F01B
:10061000AB0E466E910E476EACEC02F0AC0E466E21
:10062000010E476EACEC02F0630E466E070E476E8D
:10063000ACEC02F0640E466E59C047F0ACEC02F030
:10064000650E466E070E476EACEC02F0900E466EDD
:10065000A10E476EACEC02F0010E36EC04F0120075
:100660005D9C070E596E070E516E51503BEC03F026
:100670005106FBE21200640D210EF324536E556EF9
:10068000000EF420546E566E220E5526000E562291
:10069000320EF324576E000EF420586ECCEC02F0AC
:0206A000120046
:0E06A200112141811828488814244484122212
:1006B0004282000E406E140E40264024406E00EE32
:1006C00000F0EE6AE964FDD7416A426A436A1200AB
:1006D000466E00EE00F0EFB63AD0EF86F00E46140C
:1006E000EF12E89EE838640D0A0EF3244C6E4E6E4D
:1006F000000EF420486E4A6E500E4E26000E4A221E
:10070000EFAE2BD0C00E506E900E446E4426010EFC
:10071000456E4522070E4614320D140EF3244D6E1D
:100720004F6EF36E000EF420496E4B6EF46E0A0E9F
:100730004F26000E4B22F350445EF450455A010EF2
:1007400044C0EBFF4550EF12BDEC01F01200E92A66
:10075000E92A4050E962BFD71200070ED4D700EE55
:1007600000F0EFA661D0030EEF14E8665DD0010E35
:10077000EBCF44F0140E446057D0000EF86E060E16
:10078000F76EA20EF66EA3EC04F0FF0E476EEF3884
:100790000F0BF626000EF722F8220800F550446EE3
:1007A0004714446241D0010EEBCF44F00A0E44607E
:1007B00041D0050E446040D041D041240700416E35
:1007C000000E42200700426E000E43200700436ED9
:1007D000600E526E2EEC00F0F00E4314E8384EEC32
:1007E00000F0100E52260F0E43144EEC00F0100EC7
:1007F0005226F00E4214E8384EEC00F0100E52264D
:100800000F0E42144EEC00F0100E5226F00E411462
:10081000E8384EEC00F0100E52260F0E41144EEC4C
:1008200000F032EC04F01200E92AE92A4050E962B3
:1008300098D71200100EC1D7250EBFD7500EBDD7C6
:1008400000EE00F0EFA603D0010EEB0606E3E92A66
:10085000E92A4050E962F6D71200EF06EFB432EC15
:1008600004F0F5D7EF6A010EEB6A1200466EFA0E3D
:100870003DEC04F0462EFBD71200486E483A0F0EAE
:100880004814476EF00E481647EC04F01200000EB4
:080890004806475AFDE2120080
:080898007DEC04F00FEC00F010
:1008A000070E68EC03F0020E68EC03F0010E68EC32
:1008B00003F0000E68EC03F00FEC00F0070E68EC9C
:1008C00003F0020E68EC03F0010E68EC03F0000E7A
:1008D00068EC03F00FEC00F0070E68EC03F0020E7A
:1008E00068EC03F0010E68EC03F0000E68EC03F016
:0A08F0000FEC00F00FEC00F0120016
:0608FA00230E9CEC04F04B
:10090000300E9CEC04F0300E9CEC04F00A0E9CECD3
:1009100004F01200AB8EAC98AC94AC8A6596670E6E
:10092000AF6E948C8B9A949AFA0E36EC04F08B8A04
:10093000FA0E36EC04F012009EA8FED7AD6E12003F
:100940000F01538D12008D6A0F0E966E010E3DEC55
:1009500004F00F0E84145E6E8D6AF00E966E010E1A
:0E0960003DEC04F0F00E84145E10E81C120052
:020000040030CA
:0100000015EA
:0100010013EB
:010002007F7E
:010003007F7D
:01000400F902
:010005008B6F
:010006009168
:01000800FFF8
:01000900C036
:01000A00FFF6
:01000B00E014
:01000C00FFF4
:01000D0040B2
:00000001FF
