:020000040000FA
:100000007F9C7F8EBDEC02F065EC00F00EEC04F0FE
:0C001000F8EC03F0ACEC03F00CEF00F097
:02001C000000E2
:02001E00900E42
:10002000516E010E526E10EC03F02BEC00F080ECE0
:1000300003F0020E96EC03F05106000E525AF3E262
:10004000537E53AE05D08EEC02F04EEC00F0120061
:1000500087EC02F0FAD7260E446E51C045F053BE2D
:100060003EEC00F095EC02F0270E446E52C045F0D5
:1000700053BE42EC00F095EC02F01200900E5124B9
:10008000456E1200010E5220456E1200300F4F6E69
:1000900084EC01F04F50A0EC01F01200000E4A6E0B
:1000A000000E466E000E4B6E000E476E1F0E4C6E1D
:1000B000030E486E900E4D6E010E496E4E6AA6EC10
:1000C00001F0050E96EC03F012008C6A8C8E8C8881
:1000D0008C8C956A958A8C90640E96EC03F08C80DB
:1000E000640E96EC03F0ACEC02F013EC02F0100E90
:1000F000446E000E456E95EC02F0040E446E810EC7
:10010000456E95EC02F0010E96EC03F0140E446E71
:10011000630E456E95EC02F0150E446E000E456EB2
:1001200095EC02F0160E446E030E456E95EC02F04F
:10013000170E446E030E456E95EC02F0180E446ED9
:100140000B0E456E95EC02F0190E446EDF0E456EF7
:1001500095EC02F01A0E446E010E456E95EC02F01D
:100160001B0E446E1F0E456E95EC02F01C0E446E85
:10017000000E456E95EC02F01D0E446E160E456E97
:1001800095EC02F01E0E446E000E456E95EC02F0EA
:100190001F0E446E010E456E95EC02F0300E446E5B
:1001A000000E456E95EC02F0310E446E000E456E69
:1001B00095EC02F0340E446E1F0E456E95EC02F085
:1001C000350E446E030E456E95EC02F0320E446E11
:1001D000000E456E95EC02F0330E446E000E456E37
:1001E00095EC02F0360E446EDF0E456E95EC02F093
:1001F000370E446E010E456E95EC02F08E0E446E85
:10020000C00E456E95EC02F0FA0E96EC03F0FA0E75
:1002100096EC03F027EC02F02EEC02F035EC02F045
:100220003CEC02F043EC02F07AEC02F0539E87ECD7
:1002300002F0210E446E000E456E95EC02F0600E49
:10024000446E000E456E95EC02F0610E446E000E99
:10025000456E95EC02F0620E446E000E456E95EC14
:1002600002F0630E446E070E456E95EC02F0640ECC
:10027000446E070E456E95EC02F0650E446E030E5B
:10028000456E95EC02F0220E446E050E456E95EC1F
:1002900002F0506A84EC01F0530EA0EC01F0630E02
:1002A000A0EC01F06F0EA0EC01F0720EA0EC01F0DA
:1002B000650EA0EC01F03A0EA0EC01F0300EA0ECBF
:1002C00001F0300EA0EC01F0300EA0EC01F0300E89
:1002D000A0EC01F0300EA0EC01F0300EA0EC01F02B
:1002E0001200630E446E070E456E95EC02F0640E2C
:1002F000446E070E456E95EC02F0650E446E030EDB
:10030000456E95EC02F012002A0E446E470E502402
:10031000456E95EC02F02B0E446E456A020E4526A2
:10032000456E95EC02F02C0E446EBF0E456E95ECBA
:1003300002F02D0E446E010E456E95EC02F0120097
:10034000456E020E446E95EC02F01200910E446E62
:100350004AC045F095EC02F0920E446E46C045F05E
:1003600095EC02F0930E446E4BC045F095EC02F014
:10037000940E446E47C045F095EC02F0950E446E25
:100380004CC045F095EC02F0960E446E48C045F026
:1003900095EC02F0970E446E4DC045F095EC02F0DE
:1003A000980E446E49C045F095EC02F0A10E446EE3
:1003B000050E456E95EC02F0A20E446E000E456EE1
:1003C00095EC02F0A30E446E050E456E95EC02F01E
:1003D000A40E446E000E456E95EC02F0630E446E62
:1003E000070E4E14456E95EC02F0640E446E4E42BC
:1003F0004E424E42070E4E14456E95EC02F0650ECD
:10040000446E4E424E424E42030E4E14456E95ECE3
:1004100002F0A00E446EE00E456E95EC02F0010E67
:1004200096EC03F01200880E446E000E0B0F456E22
:1004300095EC02F0010E96EC03F0890E446E020E6C
:10044000456E95EC02F0010E96EC03F01200010EE1
:10045000446E800E456E95EC02F01200C70E446E9D
:10046000010E456E95EC02F012008A0E446E8A0E63
:10047000456E95EC02F012008B0E446EFF0E456E39
:1004800095EC02F01200380E446E000E456E95ECAD
:1004900002F0390E446E000E456E95EC02F03A0EF5
:1004A000446E000E456E95EC02F03B0E446E000E5D
:1004B000456E95EC02F03C0E446E1F0E456E95ECB9
:1004C00002F03D0E446E030E456E95EC02F03E0EBA
:1004D000446E900E456E95EC02F03F0E446E010E98
:1004E000456E95EC02F0520E446EC00E456E95ECD2
:1004F00002F01200200E446E800E456E95EC02F064
:10050000400E446E800E456E95EC02F01200410ED6
:10051000446E000E456E95EC02F01200410E446EE2
:10052000010E456E95EC02F012009AEC02F0A3EC7D
:1005300002F012008C9E800EB0EC02F04450B0EC41
:1005400002F08C8E12008C9E000EB0EC02F0455032
:10055000B0EC02F08C8E1200689C320E676E1200B6
:0A0560006A6EA1AAFED7A19A12004C
:06056A0011214181182857
:1005700048881424448412224282000E406E140ED5
:100580004026402600EE00F0EE6AE962FDD7416A9F
:10059000426A436A1200456E00EE00F0EFB638D0B2
:1005A000EF86F00E4514EF12E89EE838640D0A0E4F
:1005B000F3244A6E4C6E000EF420466E486E500EC8
:1005C0004C26000E4822EFAE29D0C00E4E6E070E0C
:1005D0004514320D140EF3244B6E4D6EF36E000E67
:1005E000F420476E496EF46E0A0E4D26000E492225
:1005F0005150F35E5250F456900EF35E010EF456D5
:10060000010EF3CFEBFFF450EF12A6EC01F0120055
:10061000E92AE92A4050E962C1D71200070ED6D76D
:1006200000EE00F0EFA660D0030EEF14E8665CD099
:10063000010EEBCF44F0140E446056D0000EF86E5D
:10064000050EF76E6A0EF66E11EC04F0466EEF388A
:100650000F0BF626000EF722F8220800F550446E24
:100660004614446241D0010EEBCF44F00A0E4460C0
:1006700041D0050E446040D041D041240700416E76
:10068000000E42200700426E000E43200700436E1A
:10069000600E506E71EC01F0F00E4314E83846EC39
:1006A00000F0100E50260F0E431446EC00F0100E12
:1006B0005026F00E4214E83846EC00F0100E50269A
:1006C0000F0E421446EC00F0100E5026F00E4114AE
:1006D000E83846EC00F0100E50260F0E411446ECA0
:1006E00000F092EC03F01200E92AE92A4050E96296
:1006F00099D71200100EC1D7250EBFD7500EBDD707
:1007000000EE00F0EFA603D0010EEB0606E3E92AA7
:10071000E92A4050E962F6D71200EF06EFB492ECF6
:1007200003F0F5D7EF6A010EEB6A1200446EFA0E81
:100730009DEC03F0442EFBD71200466E463A0F0E96
:100740004614456EF00E4616A7EC03F01200000E9C
:080750004606455AFDE21200C5
:08075800EBEC03F00FEC00F0E4
:100760000FEC00F0070ECBEC02F0060ECBEC02F023
:10077000050ECBEC02F0040ECBEC02F0030ECBEC3A
:1007800002F0020ECBEC02F0010ECBEC02F0000EF8
:10079000CBEC02F00FEC00F0070ECBEC02F0060EF3
:1007A000CBEC02F0050ECBEC02F0040ECBEC02F029
:1007B000030ECBEC02F0020ECBEC02F0010ECBEC00
:1007C00002F0000ECBEC02F00FEC00F00FEC00F0AA
:0607D0000FEC00F0120026
:0A07D600230E0AEC04F0300E0AECCA
:1007E00004F0300E0AEC04F00A0E0AEC04F01200D9
:1007F000AB8EAC98AC94AC8A6596670EAF6E948C59
:100800008B9A949AFA0E96EC03F08B8AFA0E96EC79
:0C08100003F012009EA8FED7AD6E12008F
:04081C000F01538DE8
:1008200012008D6A0F0E966E010E9DEC03F00F0EF6
:100830008414546E8D6AF00E966E010E9DEC03F0DA
:0A084000F00E84145410E81C12009E
:020000040030CA
:0100000015EA
:0100010013EB
:010002007F7E
:010003007F7D
:01000400F902
:010005008B6F
:010006009168
:01000800FFF8
:01000900C036
:01000A00FFF6
:01000B00E014
:01000C00FFF4
:01000D0040B2
:00000001FF
