:020000040000FA
:100000007F9C7F8EC7EC00F039EC03F06FEC03F0BF
:08001000CEEC02F00AEF00F053
:020018000000E6
:06001A00900E046E010EC1
:10002000056E000E40EC00F09EEC02F061EC02F078
:10003000020EB8EC02F00406055AF4E2067006A0BF
:1000400005D0EFEC01F029EC00F01200E9EC01F032
:10005000FAD7000E0B6E000E076E000E0C6E000E2F
:10006000086E1F0E0D6E030E096E900E0E6E010EC1
:100070000A6E0F6A5BEC00F0050EB8EC02F012009D
:10008000260E026E04C003F006B053EC00F0F6EC4E
:1000900001F0270E026E05C003F006B057EC00F029
:1000A000F6EC01F01200900E0424036E1200010E13
:1000B0000520036E1200910E026E0BC003F0F6ECE9
:1000C00001F0920E026E07C003F0F6EC01F0930E01
:1000D000026E0CC003F0F6EC01F0940E026E08C044
:1000E00003F0F6EC01F0950E026E0DC003F0F6EC95
:1000F00001F0960E026E09C003F0F6EC01F0970EC7
:10010000026E0EC003F0F6EC01F0980E026E0AC00B
:1001100003F0F6EC01F0A10E026E050E036EF6EC94
:1001200001F0A20E026E000E036EF6EC01F0A30EBB
:10013000026E050E036EF6EC01F0A40E026E000EC8
:10014000036EF6EC01F0630E026E070E0F14036EE1
:10015000F6EC01F0640E026E0F420F420F42070EE2
:100160000F14036EF6EC01F0650E026E0F420F42A3
:10017000030E0F14036EF6EC01F0A00E026EE00EFB
:10018000036EF6EC01F0010EB8EC02F012008C9058
:10019000640EB8EC02F08C80640EB8EC02F08C6A4D
:1001A0008C8E8C888C8C956A0DEC02F079EC01F0C9
:1001B000100E026E0C0E036EF6EC01F0040E026ED1
:1001C000810E036EF6EC01F0010EB8EC02F0140E95
:1001D000026E630E036EF6EC01F0150E026E000E59
:1001E000036EF6EC01F0160E026E030E036EF6ECD3
:1001F00001F0170E026E030E036EF6EC01F0180EFE
:10020000026E0B0E036EF6EC01F0190E026EDF0E9D
:10021000036EF6EC01F01A0E026E010E036EF6ECA0
:1002200001F01B0E026E1F0E036EF6EC01F01C0EA9
:10023000026E036AF6EC01F01D0E026E160E036EDE
:10024000F6EC01F01E0E026E036AF6EC01F01F0ED2
:10025000026E010E036EF6EC01F0300E026E036AC0
:10026000F6EC01F0310E026E036AF6EC01F0340E8A
:10027000026E1F0E036EF6EC01F0350E026E030ED9
:10028000036EF6EC01F0320E026E036AF6EC01F03A
:10029000330E026E036AF6EC01F0360E026EDF0ECC
:1002A000036EF6EC01F0370E026E010E036EF6ECF3
:1002B00001F08E0E026E800E036EF6EC01F0FA0E67
:1002C000B8EC02F0FA0EB8EC02F08DEC01F094EC10
:1002D00001F09BEC01F0A2EC01F0A9EC01F0DCECE8
:1002E00001F00690EFEC01F029EC00F0E9EC01F0F0
:1002F0001200880E026E000E0B0F036EF6EC01F07A
:10030000010EB8EC02F0890E026E020E036EF6ECDE
:1003100001F0010EB8EC02F01200010E026E800E28
:10032000036EF6EC01F01200C70E026E010E036EB2
:10033000F6EC01F012008A0E026E8A0E036EF6ECE5
:1003400001F012008B0E026EFF0E036EF6EC01F050
:100350001200380E026E036AF6EC01F0390E026EDE
:10036000036AF6EC01F03A0E026E036AF6EC01F055
:100370003B0E026E036AF6EC01F03C0E026E1F0E9D
:10038000036EF6EC01F03D0E026E030E036EF6EC0A
:1003900001F03E0E026E900E036EF6EC01F03F0E81
:1003A000026E010E036EF6EC01F0520E026EC00EEC
:1003B000036EF6EC01F01200200E026E800E036E4A
:1003C000F6EC01F0400E026E800E036EF6EC01F0CA
:1003D0001200400E026E036AF6EC01F01200400EAD
:1003E000026E010E036EF6EC01F01200FBEC01F060
:1003F00004EC02F012008C9E800E11EC02F0025010
:1004000011EC02F08C8E12008C9E000E11EC02F0AA
:10041000035011EC02F08C8E1200689C320E676E55
:0C04200012006A6EA1AAFED7A19A120079
:04042C0088848381BC
:10043000181412114844424128242221306E00EE43
:1004400010F0EFB636D0EF86F00E3014EF12640DD8
:100450000A0EF3240B6E0D6E000EF420076E096E6B
:10046000500E0D26000E0922EFAE29D0030E0F6E9E
:10047000070E3014320D140EF3240C6E0E6EF36E54
:10048000000EF420086E0A6EF46E0A0E0E26000EA0
:100490000A220450F35E0550F456900EF35E010EEE
:1004A000F456010EF3CFEBFFF450EF125BEC00F0CB
:1004B0001200002A002A240E00601200C2D7E00EAB
:1004C000D6D700EE10F0EFA62DD0030EEF14E8669D
:1004D00029D0010EEBCF37F0140E376023D0000E79
:1004E000F86E040EF76E2C0EF66EEF380F0BF62634
:1004F000000EF722F8220800F550376E011437621B
:1005000011D0010EEBCF37F00A0E376011D0050E77
:10051000376010D011D03126000E32223322B4ECD5
:1005200002F01200002A002A240E00601200CBD72D
:10053000190EF1D7320EEFD7640EEDD700EE10F0A2
:10054000EFA609D0010EEB06030EEF14376E000E76
:10055000375807E3EF12002A002A240E0060120029
:10056000EFD7B4EC02F0F7D7EF6A010EEB6A120096
:10057000346EFA0EBFEC02F0342EFBD71200366E4A
:10058000363A0F0E3614356EF00E3616C9EC02F000
:0C0590001200000E3606355AFDE2120083
:04059C0062EC03F01A
:1005A000000E1EEC02F0090E1EEC02F0120E1EEC04
:1005B00002F01B0E1EEC02F0240E1EEC02F02D0EBB
:1005C0001EEC02F0360E1EEC02F03F0E1EEC02F0A6
:1005D0000DEC00F0470E1EEC02F04E0E1EEC02F089
:1005E000550E1EEC02F05C0E1EEC02F0630E1EECCB
:1005F00002F06A0E1EEC02F0710E1EEC02F0780E94
:100600001EEC02F00DEC00F0000E1EEC02F0090EE4
:100610001EEC02F0120E1EEC02F01B0E1EEC02F09D
:10062000240E1EEC02F02D0E1EEC02F0360E1EEC17
:1006300002F03F0E1EEC02F00DEC00F0470E1EEC37
:1006400002F04E0E1EEC02F0550E1EEC02F05C0E97
:100650001EEC02F0630E1EEC02F06A0E1EEC02F0BD
:10066000710E1EEC02F0780E1EEC02F00DEC00F0A4
:02067000120076
:0E0672000F01538D120001688D6A0F0E966EF7
:10068000640EB8EC02F00E0E846201900D0E8462CE
:1006900001920B0E84620194070E846201968D6AAA
:1006A000F00E966E640EB8EC02F0E00E84620198D3
:1006B000D00E8462019AB00E8462019C700E846236
:0406C000019E120085
:0C06C400230E78EC03F0300E78EC03F00D
:1006D000300E78EC03F00A0E78EC03F01200AB8ECB
:1006E000AC98AC94AC8A6596670EAF6E948C120091
:0806F0009EA8FED7AD6E1200BA
:020000040030CA
:0100000015EA
:0100010013EB
:010002007F7E
:010003007F7D
:01000400F902
:010005008B6F
:010006009168
:01000800FFF8
:01000900C036
:01000A00FFF6
:01000B00E014
:01000C00FFF4
:01000D0040B2
:00000001FF
