:020000040000FA
:100000007F9C7F8EA3EC09F0D5EC06F0B8EC0AF0EB
:0C001000A2EC0AF00FEC00F00CEF00F086
:02001C000000E2
:02001E0095EC5F
:100020000AF056EC06F07D0E7FEC0AF0470EB2ECBB
:1000300009F0060EB2EC09F0450EB2EC09F0010E23
:10004000B2EC09F0400EB2EC09F056EC06F0070EE7
:10005000B2EC09F0430EB2EC09F0020EB2EC09F07A
:10006000410EB2EC09F0000EB2EC09F056EC06F0CD
:10007000570EB2EC09F0160EB2EC09F0550EB2ECC8
:1000800009F0110EB2EC09F0500EB2EC09F056EC8A
:1000900006F08E92070EB2EC09F0530EB2EC09F0A6
:1000A000020EB2EC09F0510EB2EC09F0000EB2EC07
:1000B00009F056EC06F0470EB2EC09F0060EB2EC71
:1000C00009F0450EB2EC09F0010EB2EC09F0400E59
:1000D000B2EC09F056EC06F0070EB2EC09F0430E54
:1000E000B2EC09F0020EB2EC09F0410EB2EC09F0EC
:1000F000000EB2EC09F056EC06F0570EB2EC09F027
:10010000160EB2EC09F0550EB2EC09F0130EB2EC7B
:1001100009F0500EB2EC09F056EC06F0170EB2ECF6
:1001200009F0530EB2EC09F0130EB2EC09F056ECE4
:1001300006F0670EB2EC09F0260EB2EC09F0650E7F
:10014000B2EC09F0210EB2EC09F0600EB2EC09F04D
:1001500056EC06F0270EB2EC09F0630EB2EC09F093
:10016000220EB2EC09F0610EB2EC09F0200EB2ECF6
:1001700009F056EC06F0770EB2EC09F0360EB2EC50
:1001800009F0750EB2EC09F0310EB2EC09F0700E08
:10019000B2EC09F056EC06F0370EB2EC09F0730E33
:1001A000B2EC09F0320EB2EC09F0710EB2EC09F0CB
:1001B000300EB2EC09F056EC06F0670EB2EC09F026
:1001C000260EB2EC09F0650EB2EC09F0210EB2EC8D
:1001D00009F0600EB2EC09F056EC06F0270EB2EC16
:1001E00009F0630EB2EC09F0220EB2EC09F0610ED8
:1001F000B2EC09F0200EB2EC09F056EC06F0770EE6
:10020000B2EC09F0360EB2EC09F0750EB2EC09F062
:10021000330EB2EC09F0700EB2EC09F056EC06F0B9
:10022000370EB2EC09F0730EB2EC09F0330EB2ECFB
:1002300009F056EC06F056EC06F056EC06F07D0E92
:100240007FEC0AF0C70EB2EC09F0930EB2EC09F0A5
:10025000D00EB2EC09F056EC06F0D70EB2EC09F075
:10026000930EB2EC09F0C00EB2EC09F056EC06F0B9
:10027000C70EB2EC09F0930EB2EC09F056EC06F0A2
:1002800056EC06F0FA0E7FEC0AF0970EB2EC09F08D
:10029000E30EB2EC09F0A00EB2EC09F056EC06F059
:1002A000A70EB2EC09F0E30EB2EC09F0900EB2EC3E
:1002B00009F056EC06F056EC06F056EC06F07D0E12
:1002C0007FEC0AF0C70EB2EC09F0930EB2EC09F025
:1002D000D00EB2EC09F056EC06F0D70EB2EC09F0F5
:1002E000930EB2EC09F056EC06F0C70EB2EC09F032
:1002F000C60EB2EC09F0920EB2EC09F056EC06F024
:1003000056EC06F07D0E7FEC0AF0960EB2EC09F08A
:10031000E30EB2EC09F056EC06F0A70EB2EC09F0D1
:10032000A60EB2EC09F0E20EB2EC09F056EC06F0C3
:10033000E70EB2EC09F056EC06F056EC06F0FA0EB9
:100340007FEC0AF0570EB2EC09F0230EB2EC09F084
:10035000600EB2EC09F056EC06F0370EB2EC09F084
:10036000630EB2EC09F0200EB2EC09F056EC06F088
:10037000FA0E7FEC0AF0570EB2EC09F0230EB2EC45
:1003800009F056EC06F056EC06F0FA0E7FEC0AF097
:10039000270EB2EC09F0730EB2EC09F0F00EB2ECDD
:1003A00009F056EC06F0B70EB2EC09F0330EB2ECE1
:1003B00009F056EC06F0070EB2EC09F0E70EB2ECCD
:1003C00009F056EC06F056EC06F0470EB2EC09F0D8
:1003D000070EB2EC09F0930EB2EC09F0D30EB2ECBA
:1003E00009F0A00EB2EC09F0E00EB2EC09F056EC08
:1003F00006F0A70EB2EC09F0E70EB2EC09F0930E8E
:10040000B2EC09F0D30EB2EC09F0000EB2EC09F038
:10041000400EB2EC09F056EC06F0070EB2EC09F013
:10042000470EB2EC09F0830EB2EC09F0C30EB2EC49
:1004300009F056EC06F056EC06F0870EB2EC09F027
:10044000C70EB2EC09F0930EB2EC09F0D30EB2EC89
:1004500009F0A00EB2EC09F0E00EB2EC09F056EC97
:1004600006F0A70EB2EC09F0E70EB2EC09F0B30EFD
:10047000B2EC09F0F30EB2EC09F056EC06F0470EC0
:10048000B2EC09F0060EB2EC09F0550EB2EC09F030
:10049000140EB2EC09F0630EB2EC09F0220EB2ECCD
:1004A00009F0710EB2EC09F0300EB2EC09F056EC26
:1004B00006F0F70EB2EC09F0B60EB2EC09F0E50E5C
:1004C000B2EC09F0A40EB2EC09F0D30EB2EC09F0D4
:1004D000920EB2EC09F0C10EB2EC09F0800EB2EC53
:1004E00009F056EC06F0470EB2EC09F0060EB2EC3D
:1004F00009F0550EB2EC09F0140EB2EC09F0630EDF
:10050000B2EC09F0220EB2EC09F0710EB2EC09F077
:10051000300EB2EC09F056EC06F0F70EB2EC09F032
:10052000B60EB2EC09F0E50EB2EC09F0A40EB2EC96
:1005300009F0D30EB2EC09F0920EB2EC09F0C10E44
:10054000B2EC09F0800EB2EC09F056EC06F0470E62
:10055000B2EC09F0060EB2EC09F0550EB2EC09F05F
:10056000140EB2EC09F0630EB2EC09F0220EB2ECFC
:1005700009F0710EB2EC09F0300EB2EC09F056EC55
:1005800006F0F70EB2EC09F0B60EB2EC09F0E50E8B
:10059000B2EC09F0A40EB2EC09F0D30EB2EC09F003
:1005A000920EB2EC09F0C10EB2EC09F0800EB2EC82
:1005B00009F056EC06F0F70EB2EC09F0B60EB2EC0C
:1005C00009F0E50EB2EC09F0A40EB2EC09F0D30E7E
:1005D000B2EC09F0920EB2EC09F0C10EB2EC09F0E7
:1005E000800EB2EC09F056EC06F0470EB2EC09F0C2
:1005F000060EB2EC09F0550EB2EC09F0140EB2EC96
:1006000009F0630EB2EC09F0220EB2EC09F0710EA3
:10061000B2EC09F0300EB2EC09F056EC06F0F70E31
:10062000B2EC09F0B60EB2EC09F0E50EB2EC09F04E
:10063000A40EB2EC09F0D30EB2EC09F0920EB2ECBB
:1006400009F0C10EB2EC09F0800EB2EC09F056ECE4
:1006500006F0470EB2EC09F0060EB2EC09F0550EAA
:10066000B2EC09F0140EB2EC09F0630EB2EC09F032
:10067000220EB2EC09F0710EB2EC09F0300EB2ECC1
:1006800009F056EC06F0F70EB2EC09F0B60EB2EC3B
:1006900009F0E50EB2EC09F0A40EB2EC09F0D30EAD
:1006A000B2EC09F0920EB2EC09F0C10EB2EC09F016
:1006B000800EB2EC09F056EC06F0470EB2EC09F0F1
:1006C000060EB2EC09F0550EB2EC09F0140EB2ECC5
:1006D00009F0630EB2EC09F0220EB2EC09F0710ED3
:1006E000B2EC09F0300EB2EC09F056EC06F0370E21
:1006F000B2EC09F0760EB2EC09F0250EB2EC09F07E
:10070000640EB2EC09F0130EB2EC09F0520EB2EC2A
:1007100009F0010EB2EC09F0400EB2EC09F056EC13
:1007200006F0B70EB2EC09F0F60EB2EC09F0A50E29
:10073000B2EC09F0E40EB2EC09F0930EB2EC09F061
:10074000D20EB2EC09F0810EB2EC09F0C00EB2ECA0
:1007500009F056EC06F0370EB2EC09F0760EB2EC6A
:1007600009F0250EB2EC09F0640EB2EC09F0130E9C
:10077000B2EC09F0520EB2EC09F0010EB2EC09F045
:10078000400EB2EC09F056EC06F0470EB2EC09F060
:10079000570EB2EC09F0670EB2EC09F0770EB2EC2E
:1007A00009F056EC06F0070EB2EC09F0850EB2EC3B
:1007B00009F0830EB2EC09F0010EB2EC09F056EC30
:1007C00006F0070EB2EC09F0850EB2EC09F0830ECC
:1007D000B2EC09F0010EB2EC09F056EC06F0570E3F
:1007E000B2EC09F0D50EB2EC09F0D30EB2EC09F080
:1007F000510EB2EC09F056EC06F0570EB2EC09F0CF
:10080000D50EB2EC09F0D30EB2EC09F0510EB2ECF9
:1008100009F056EC06F0270EB2EC09F0A50EB2EC8A
:1008200009F0A30EB2EC09F0210EB2EC09F056EC7F
:1008300006F0270EB2EC09F0A50EB2EC09F0A30EFB
:10084000B2EC09F0210EB2EC09F056EC06F0770E8E
:10085000B2EC09F0F50EB2EC09F0F30EB2EC09F0CF
:10086000710EB2EC09F056EC06F0770EB2EC09F01E
:10087000F50EB2EC09F0F30EB2EC09F0710EB2EC29
:1008800009F056EC06F0370EB2EC09F0B50EB2ECFA
:1008900009F0B30EB2EC09F0310EB2EC09F056ECEF
:1008A00006F0370EB2EC09F0B50EB2EC09F0B30E5B
:1008B000B2EC09F0310EB2EC09F056EC06F0670E1E
:1008C000B2EC09F0E50EB2EC09F0E30EB2EC09F07F
:1008D000610EB2EC09F056EC06F0670EB2EC09F0CE
:1008E000E50EB2EC09F0E30EB2EC09F0610EB2ECE9
:1008F00009F056EC06F0170EB2EC09F0950EB2ECCA
:1009000009F0930EB2EC09F0110EB2EC09F056ECBE
:1009100006F0170EB2EC09F0950EB2EC09F0930E4A
:10092000B2EC09F0110EB2EC09F056EC06F0470EED
:10093000B2EC09F0C50EB2EC09F0C30EB2EC09F04E
:10094000410EB2EC09F056EC06F0470EB2EC09F09D
:10095000C50EB2EC09F0430EB2EC09F0C10EB2ECD8
:1009600009F056EC06F0270EB2EC09F0750EB2EC69
:1009700009F0730EB2EC09F0220EB2EC09F0510E40
:10098000B2EC09F056EC06F0170EB2EC09F0970E37
:10099000B2EC09F0550EB2EC09F0530EB2EC09F0CE
:1009A000110EB2EC09F056EC06F0070EB2EC09F0AD
:1009B000870EB2EC09F0C50EB2EC09F0450EB2ECB0
:1009C00009F056EC06F0C70EB2EC09F0470EB2EC97
:1009D00009F0050EB2EC09F0850EB2EC09F056EC08
:1009E00006F0870EB2EC09F0C70EB2EC09F056EC37
:1009F00006F056EC06F0130EB2EC09F056EC06F0D9
:100A0000170EB2EC09F0510EB2EC09F056EC06F0FC
:100A1000970EB2EC09F0D70EB2EC09F056EC06F0E6
:100A200056EC06F0870EB2EC09F056EC06F0970E85
:100A3000B2EC09F056EC06F0A70EB2EC09F0E70EA6
:100A4000B2EC09F056EC06F056EC06F0130EB2ECE0
:100A500009F056EC06F0170EB2EC09F0510EB2ECAC
:100A600009F056EC06F0870EB2EC09F056EC06F0F1
:100A7000970EB2EC09F056EC06F0470EB2EC09F016
:100A8000060EB2EC09F0550EB2EC09F0140EB2EC01
:100A900009F0630EB2EC09F0220EB2EC09F0710E0F
:100AA000B2EC09F0300EB2EC09F056EC06F0C70ECD
:100AB000B2EC09F0860EB2EC09F0D50EB2EC09F0FA
:100AC000940EB2EC09F0E30EB2EC09F0A20EB2EC17
:100AD00009F0F10EB2EC09F0B00EB2EC09F056ECF0
:100AE00006F0070EB2EC09F0870EB2EC09F0C70E63
:100AF000B2EC09F0470EB2EC09F056EC06F056ECF9
:100B000006F0130EB2EC09F056EC06F0170EB2EC3C
:100B100009F0510EB2EC09F056EC06F0170EB2ECEB
:100B200009F0970EB2EC09F0D70EB2EC09F0570EAF
:100B3000B2EC09F056EC06F056EC06F0970EB2EC6B
:100B400009F0D70EB2EC09F056EC06F0A70EB2ECA5
:100B500009F0E70EB2EC09F056EC06F0270EB2EC05
:100B600009F0670EB2EC09F0250EB2EC09F0650E43
:100B7000B2EC09F056EC06F0170EB2EC09F0570E85
:100B8000B2EC09F0150EB2EC09F0550EB2EC09F01A
:100B900056EC06F0070EB2EC09F0470EB2EC09F085
:100BA000050EB2EC09F0450EB2EC09F056EC06F079
:100BB000870EB2EC09F0970EB2EC09F0850EB2EC9C
:100BC00009F0950EB2EC09F056EC06F0070EB2EC07
:100BD00009F0460EB2EC09F0150EB2EC09F0540E15
:100BE000B2EC09F0230EB2EC09F0620EB2EC09F09F
:100BF000310EB2EC09F0700EB2EC09F056EC06F0D2
:100C0000870EB2EC09F0C60EB2EC09F0950EB2EC0C
:100C100009F0D40EB2EC09F0A30EB2EC09F0E20E2A
:100C2000B2EC09F0B10EB2EC09F0F00EB2EC09F042
:100C300056EC06F0370EB2EC09F0760EB2EC09F085
:100C4000B50EB2EC09F0F40EB2EC09F0230EB2ECE2
:100C500009F0620EB2EC09F0A10EB2EC09F0E00E60
:100C6000B2EC09F056EC06F0170EB2EC09F0560E95
:100C7000B2EC09F0950EB2EC09F0D40EB2EC09F02A
:100C8000030EB2EC09F0420EB2EC09F0810EB2ECA8
:100C900009F0C00EB2EC09F056EC06F0970EB2EC7B
:0C0CA00009F056EC06F056EC06F01200CD
:040CAC00900E5A6EDE
:100CB000010E5B6EF9EC09F0A3EC06F069EC0AF0AA
:100CC0005DBC12D0020E7FEC0AF03C0E86EC0AF0FE
:100CD0005A06000E5B5AEEE25D7E5DAE31D0EFEC5F
:100CE00008F0BEEC06F012005C4E7AEC09F0EAD790
:100CF000E8EC08F08FEC06F0630E466E070E476EC8
:100D0000F6EC08F0640E466E070E476EF6EC08F03F
:100D1000650E466E030E476EF6EC08F01200190ED3
:100D20005C6EEF38070B596A85EC09F05D8C120098
:100D3000300F516EE6EC07F0515001EC08F0120054
:100D4000E8EC08F0CED7260E466E5AC047F05DBEDE
:100D5000B6EC06F0F6EC08F0270E466E5BC047F0E6
:100D60005DBEBAEC06F0F6EC08F01200900E5A24C4
:100D7000476E1200010E5B20476E1200000E4C6E93
:100D8000000E486E000E4D6E000E496E1F0E4E6E28
:100D9000030E4A6E900E4F6E010E4B6E506A07ECBA
:100DA00008F0050E7FEC0AF012008C6A8C8E8C889D
:100DB0008C8C956A958A8C90640E7FEC0AF08C80FE
:100DC000640E7FEC0AF00DEC09F074EC08F0100EE4
:100DD000466E000E476EF6EC08F0040E466E810E6D
:100DE000476EF6EC08F0010E7FEC0AF0140E466E2A
:100DF000630E476EF6EC08F0150E466E000E476E59
:100E0000F6EC08F0160E466E030E476EF6EC08F090
:100E1000170E466E030E476EF6EC08F0180E466E7F
:100E20000B0E476EF6EC08F0190E466EDF0E476E9D
:100E3000F6EC08F01A0E466E010E476EF6EC08F05E
:100E40001B0E466E1F0E476EF6EC08F01C0E466E2B
:100E5000000E476EF6EC08F01D0E466E160E476E3D
:100E6000F6EC08F01E0E466E000E476EF6EC08F02B
:100E70001F0E466E010E476EF6EC08F0300E466E01
:100E8000000E476EF6EC08F0310E466E000E476E0F
:100E9000F6EC08F0340E466E1F0E476EF6EC08F0C6
:100EA000350E466E030E476EF6EC08F0320E466EB7
:100EB000000E476EF6EC08F0330E466E000E476EDD
:100EC000F6EC08F0360E466EDF0E476EF6EC08F0D4
:100ED000370E466E010E476EF6EC08F08E0E466E2B
:100EE000C00E476EF6EC08F0FA0E7FEC0AF0FA0E30
:100EF0007FEC0AF088EC08F08FEC08F096EC08F034
:100F00009DEC08F0A4EC08F0DBEC08F05D9EE8EC4A
:100F100008F08EEC07F07AEC09F01200210E466E14
:100F2000000E476EF6EC08F0600E466E000E476E3F
:100F3000F6EC08F0610E466E000E476EF6EC08F017
:100F4000620E466E000E476EF6EC08F0630E466EBB
:100F5000070E476EF6EC08F0640E466E070E476EFD
:100F6000F6EC08F0650E466E030E476EF6EC08F0E0
:100F7000220E466E050E476EF6EC08F0526AE6EC5D
:100F800007F0530E01EC08F0630E01EC08F06F0E51
:100F900001EC08F0720E01EC08F0650E01EC08F0AF
:100FA0003A0E01EC08F0300E01EC08F0300E01ECC6
:100FB00008F0300E01EC08F0300E01EC08F0300EB5
:100FC00001EC08F0300E01EC08F012002A0E466E1B
:100FD000570E5224476EF6EC08F02B0E466E476A09
:100FE000020E4722F6EC08F02C0E466EBF0E476E3E
:100FF000F6EC08F02D0E466E010E476EF6EC08F08A
:101000001200476E020E466EF6EC08F01200910ECA
:10101000466E4CC047F0F6EC08F0920E466E48C0A3
:1010200047F0F6EC08F0930E466E4DC047F0F6EC34
:1010300008F0940E466E49C047F0F6EC08F0950EA5
:10104000466E4EC047F0F6EC08F0960E466E4AC06B
:1010500047F0F6EC08F0970E466E4FC047F0F6ECFE
:1010600008F0980E466E4BC047F0F6EC08F0A10E63
:10107000466E050E476EF6EC08F0A20E466E000EA8
:10108000476EF6EC08F0A30E466E050E476EF6ECC2
:1010900008F0A40E466E000E476EF6EC08F0630EE4
:1010A000466E070E5014476EF6EC08F0640E466E5E
:1010B000504250425042070E5014476EF6EC08F072
:1010C000650E466E504250425042030E5014476E19
:1010D000F6EC08F0A00E466EE00E476EF6EC08F057
:1010E000010E7FEC0AF01200880E466E000E0B0F08
:1010F000476EF6EC08F0010E7FEC0AF0890E466EA2
:10110000020E476EF6EC08F0010E7FEC0AF01200BA
:10111000010E466E800E476EF6EC08F01200C70E08
:10112000466E010E476EF6EC08F012008A0E466E0F
:101130008A0E476EF6EC08F012008B0E466EFF0E1C
:10114000476EF6EC08F01200380E466E000E476E41
:10115000F6EC08F0390E466E000E476EF6EC08F01D
:101160003A0E466E000E476EF6EC08F03B0E466EE9
:10117000000E476EF6EC08F03C0E466E1F0E476EF2
:10118000F6EC08F03D0E466E030E476EF6EC08F0E6
:101190003E0E466E900E476EF6EC08F03F0E466E21
:1011A000010E476EF6EC08F0520E466EC00E476E0A
:1011B000F6EC08F01200200E466E800E476EF6EC3C
:1011C00008F0400E466E800E476EF6EC08F01200F6
:1011D000410E466E000E476EF6EC08F01200410E0E
:1011E000466E010E476EF6EC08F01200FBEC08F0BC
:1011F00004EC09F012008C9E800E11EC09F04650B0
:1012000011EC09F08C8E12008C9E000E11EC09F08E
:10121000475011EC09F08C8E1200689C320E676EFC
:1012200012006A6EA1AAFED7A19A1200910E466E14
:1012300053C047F0F6EC08F0920E466E54C047F0EB
:10124000F6EC08F0930E466EAF0E476EF6EC08F023
:10125000940E466E010E476EF6EC08F0950E466E43
:1012600055C047F0F6EC08F0960E466E56C047F0B3
:10127000F6EC08F0970E466EAF0E476EF6EC08F0EF
:10128000980E466E010E476EF6EC08F0A90E466EFB
:1012900057C047F0F6EC08F0AA0E466E58C047F06B
:1012A000F6EC08F0AB0E466E910E476EF6EC08F0C9
:1012B000AC0E466E010E476EF6EC08F0630E466EFD
:1012C000070E476EF6EC08F0640E466E59C047F004
:1012D000F6EC08F0650E466E070E476EF6EC08F069
:1012E000900E466EA10E476EF6EC08F0010E7FECF4
:1012F0000AF012005D9C070E596E070E516E515098
:1013000085EC09F05106FBE21200640D210EF32476
:10131000536E556E000EF420546E566E220E5526F6
:10132000000E5622320EF324576E000EF420586E33
:0613300016EC09F01200AA
:0A1336001121418118284888142471
:10134000448412224282000E406E140E4026402435
:10135000406E00EE00F0EE6AE964FDD7416A426A31
:10136000436A1200466E00EE00F0EFB63AD0EF8608
:10137000F00E4614EF12E89EE838640D0A0EF324CE
:101380004C6E4E6E000EF420486E4A6E500E4E2685
:10139000000E4A22EFAE2BD0C00E506E900E446E5F
:1013A0004426010E456E4522070E4614320D140EDA
:1013B000F3244D6E4F6EF36E000EF420496E4B6EAB
:1013C000F46E0A0E4F26000E4B22F350445EF4508A
:1013D000455A010E44C0EBFF4550EF1207EC08F0F0
:1013E0001200E92AE92A4050E962BFD71200070E2D
:1013F000D4D700EE00F0EFA660D0030EEF14E8663D
:101400005CD0010EEBCF44F0140E446056D0000EB9
:10141000F86E130EF76E360EF66EBBEC0AF0476EE2
:10142000EF380F0BF626000EF722F8220800F550D1
:10143000446E4714446241D0010EEBCF44F00A0ED3
:10144000446041D0050E446040D041D041240700A3
:10145000416E000E42200700426E000E432007003E
:10146000436E600E526E78EC06F0F00E4314E838CE
:1014700098EC06F0100E52260F0E431498EC06F06E
:10148000100E5226F00E4214E83898EC06F0100EBA
:1014900052260F0E421498EC06F0100E5226F00E53
:1014A0004114E83898EC06F0100E52260F0E411445
:1014B00098EC06F07BEC0AF01200E92AE92A405089
:1014C000E96299D71200100EC1D7250EBFD7500E72
:1014D000BDD700EE00F0EFA603D0010EEB0606E349
:1014E000E92AE92A4050E962F6D71200EF06EFB484
:1014F0007BEC0AF0F5D7EF6A010EEB6A1200466E3C
:10150000FA0E86EC0AF0462EFBD71200486E483AD7
:101510000F0E4814476EF00E481690EC0AF01200B9
:0A152000000E4806475AFDE21200D3
:06152A00230EB4EC0AF0F0
:10153000300EB4EC0AF0300EB4EC0AF00A0EB4EC43
:101540000AF01200AB8EAC98AC94AC8A6596670E2C
:10155000AF6E948C8B9A949AFA0E7FEC0AF08B8A79
:10156000FA0E7FEC0AF012009EA8FED7AD6E1200B4
:101570000F01538D12008D6A0F0E966E010E86ECD0
:101580000AF00F0E84145E6E8D6AF00E966E010ED8
:0E15900086EC0AF0F00E84145E10E81C1200C7
:020000040030CA
:0100000015EA
:0100010013EB
:010002007F7E
:010003007F7D
:01000400F902
:010005008B6F
:010006009168
:01000800FFF8
:01000900C036
:01000A00FFF6
:01000B00E014
:01000C00FFF4
:01000D0040B2
:00000001FF
